:020000040000FA
:100000000C9444030C946C030C946C030C946C03DC
:100010000C946C030C946C030C946C030C946C03A4
:100020000C946C030C946C030C946C030C946C0394
:100030000C946C030C94C5150C946C030C946C0319
:100040000C947B150C946C030C946C030C946C0353
:100050000C946C030C946C030C946C030C946C0364
:100060000C94CF150C946C0308000000BE92244938
:10007000123EABAAAA2ABECDCCCC4C3E00000080DA
:10008000BEABAAAAAA3E00000000BF000000803F4D
:100090000000000000084178D3BB4387D1133D190D
:1000A0000E3CC3BD4282AD2B3E68EC8276BED98F3A
:1000B000E1A93E4C80EFFFBE01C4FF7F3F0000007E
:1000C000000000000000003E5B4F5B3E3E6B4F6B4C
:1000D0003E1C3E7C3E1C183C7E3C181C577D571C29
:1000E0001C5E7F5E1C00183C1800FFE7C3E7FF00A2
:1000F00018241800FFE7DBE7FF30483A060E2629F0
:10010000792926407F050507407F05253F5A3CE7B2
:100110003C5A7F3E1C1C08081C1C3E7F14227F2278
:10012000145F5F005F5F06097F017F006689956A43
:10013000606060606094A2FFA29408047E040810CE
:10014000207E201008082A1C08081C2A08081E10F7
:100150001010100C1E0C1E0C30383E3830060E3EAF
:100160000E06000000000000005F0000000700070E
:1001700000147F147F14242A7F2A12231308646238
:1001800036495620500008070300001C2241000099
:1001900041221C002A1C7F1C2A08083E08080080F7
:1001A000703000080808080800006060002010088F
:1001B00004023E5149453E00427F40007249494990
:1001C000462141494D331814127F102745454539C2
:1001D0003C4A4949314121110907364949493646C6
:1001E0004949291E000014000000403400000008A6
:1001F0001422411414141414004122140802015949
:1002000009063E415D594E7C1211127C7F494949D5
:10021000363E414141227F4141413E7F494949416A
:100220007F090909013E414151737F0808087F0099
:10023000417F41002040413F017F081422417F401F
:100240004040407F021C027F7F0408107F3E4141F6
:10025000413E7F090909063E4151215E7F09192966
:1002600046264949493203017F01033F4040403F50
:100270001F2040201F3F4038403F63140814630391
:10028000047804036159494D43007F414141020410
:10029000081020004141417F040201020440404017
:1002A0004040000307080020545478407F2844440D
:1002B000383844444428384444287F385454541827
:1002C00000087E090218A4A49C787F080404780022
:1002D000447D40002040403D007F10284400004104
:1002E0007F40007C047804787C0804047838444417
:1002F0004438FC1824241818242418FC7C0804040E
:1003000008485454542404043F44243C4040207C76
:100310001C2040201C3C4030403C44281028444CC9
:100320009090907C4464544C440008364100000096
:10033000770000004136080002010204023C262337
:10034000263C1EA1A161123A4040207A38545455EF
:1003500059215555794122545478422155547840B9
:1003600020545579400C1E52721239555555593941
:100370005454545939555454580000457C41000296
:10038000457D420001457C407D1211127DF02825FB
:1003900028F07C545545002054547C547C0A097F35
:1003A0004932494949323A4444443A324A48483049
:1003B0003A4141217A3A42402078009DA0A07D3DFB
:1003C0004242423D3D4040403D3C24FF2424487E83
:1003D0004943662B2FFC2F2BFF0929F620C0887E6E
:1003E000090320545479410000447D413048484A73
:1003F00032384040227A007A0A0A727D0D19317D26
:100400002629292F28262929292630484D402038F9
:100410000808080808080808382F10C8ACBA2F10B8
:100420002834FA00007B000008142A142222142A1F
:1004300014085500550055AA55AA55AAFF55FF5551
:10044000FF000000FF00101010FF00141414FF0044
:100450001010FF00FF1010F010F0141414FC001422
:1004600014F700FF0000FF00FF1414F404FC141440
:1004700017101F10101F101F1414141F001010103D
:10048000F0000000001F101010101F10101010F0CE
:1004900010000000FF101010101010101010FF10AE
:1004A000000000FF140000FF00FF00001F101700F5
:1004B00000FC04F414141710171414F404F40000CE
:1004C000FF00F714141414141414F700F714141480
:1004D000171410101F101F141414F4141010F0101F
:1004E000F000001F101F0000001F14000000FC148B
:1004F0000000F010F01010FF10FF141414FF14107F
:1005000010101F00000000F010FFFFFFFFFFF0F0D1
:10051000F0F0F0FFFFFF0000000000FFFF0F0F0FE3
:100520000F0F3844443844FC4A4A4A347E020206DB
:1005300006027E027E0263554941633844443C040E
:10054000407E201E2006027E020299A5E7A5991C86
:100550002A492A1C4C7201724C304A4D4D303048A9
:10056000784830BC625A463D3E494949007E010107
:10057000017E2A2A2A2A2A44445F444440514A449C
:100580004040444A51400000FF0103E080FF00006A
:1005900008086B6B083612362436060F090F060062
:1005A0000018180000001010003040FF0101001F6B
:1005B00001011E00191D1712003C3C3C3C000000CC
:1005C000000000000000240027002A0000000008AE
:1005D000000201000003040700000000000000000A
:1005E00004E010021C07123732292D29252B39006F
:1005F000010310E110031D07062E2C292D2E2E3786
:100600003F0000021013800A298064022A040000BF
:10061000007F2B040000009F0F0180961180FFB126
:1006200003012C2DB203012C2DB306012C2D012C1E
:100630002DB40107C003A20284C101C5C2020A0091
:10064000C3028A2AC4028AEEC5010E20003601C800
:100650003A0105010204081020408001020408103C
:100660002001020408102000000000250028002BB3
:10067000000404040404040404020202020202034B
:10068000030303030300EA1611241FBECFEFD8E0D3
:10069000DEBFCDBF11E0A0E0B1E0EEE0F3E402C0C8
:1006A00005900D92AA3CB107D9F722E0AAECB1E07F
:1006B00001C01D92A63BB207E1F713E0C4E4D3E00A
:1006C00004C02197FE010E947A21C334D107C9F7E3
:1006D0000E94A0170C9485210C940000AF92BF9249
:1006E000CF92DF92EF92FF920F931F93CF93DF93FE
:1006F0006C017B018B01040F151FEB015E01AE182D
:10070000BF08C017D10759F06991D601ED91FC914E
:100710000190F081E02DC6010995892B79F7C5017B
:10072000DF91CF911F910F91FF90EF90DF90CF90CD
:10073000BF90AF90089590E0FC01E453FA4F2491EC
:10074000FC01ED5AF94F3491FC01EF58F94FE49157
:10075000EE23C9F0222339F0233001F1A8F421302F
:1007600019F1223029F1F0E0EE0FFF1FE959F94F9E
:10077000A591B4918FB7F894EC91611126C0309592
:100780003E233C938FBF08952730A9F02830C9F04D
:10079000243049F7809180008F7D03C080918000D4
:1007A0008F7780938000DFCF84B58F7784BDDBCFD8
:1007B00084B58F7DFBCF8091B0008F778093B000A0
:1007C000D2CF8091B0008F7DF9CF3E2BDACFCF937F
:1007D000DF9390E0FC01ED5AF94F24918F58994F27
:1007E000FC0184918823D1F090E0880F991FFC01CF
:1007F000EE53FA4FA591B491FC01E959F94FC59117
:10080000D49161110EC09FB7F8948C91E22FE095BE
:100810008E238C932881E223E8839FBFDF91CF91C1
:1008200008958FB7F894EC91E22BEC938FBFF6CF3D
:100830002091000190E4299F900111248E50822B79
:1008400080937C0080917A00806480937A0080910C
:100850007A0086FDFCCF8091780090917900089510
:100860003FB7F89480913D0290913E02A0913F02E3
:10087000B091400226B5A89B05C02F3F19F0019604
:10088000A11DB11D3FBFBA2FA92F982F8827BC01EA
:10089000CD01620F711D811D911D42E0660F771F12
:1008A000881F991F4A95D1F708958F929F92AF9212
:1008B000BF92CF92DF92EF92FF926B017C010E9478
:1008C00030044B015C01C114D104E104F104B9F01E
:1008D0000E943004681979098A099B09683E7340AF
:1008E0008105910580F321E0C21AD108E108F108E1
:1008F00088EE880E83E0981EA11CB11CE4CFFF9007
:10090000EF90DF90CF90BF90AF909F908F90089521
:10091000FC01A5A1B6A18C9192A589238C93A5A1D8
:10092000B6A18C9191A5892B8C930895DC019396A7
:10093000ED91FC919497908198968C918923808376
:100940000895DC019396ED91FC9194979081979690
:100950008C91892B80830895DC019196ED91FC9117
:100960009297908196968C91892380830895DC01DB
:100970009196ED91FC919297908195968C91892B0F
:1009800080830895CF92DF92EF92FF921F93CF93CF
:10099000DF93EC016A017B018DA9811123C08F2DAA
:1009A0009927AA27BB278EBD0DB407FEFDCFC7012F
:1009B000AA27BB278EBD0DB407FEFDCFBB27AF2DE9
:1009C0009E2D8D2D8EBD0DB407FEFDCFCEBC0DB47A
:1009D00007FEFDCFDF91CF911F91FF90EF90DF9049
:1009E000CF9008958130B1F410E2CE01F7FE0FC030
:1009F0000E94B704CE010E94A104CE010E94960479
:100A0000CC0CDD1CEE1CFF1C115079F7E3CF0E94CB
:100A1000AC04F0CFEF8DF8A18F2D9927AA27BB2723
:100A20008083CE010E948804EF8DF8A1C701AA2718
:100A3000BB278083CE010E948804EF8DF8A1BB27DD
:100A4000AF2D9E2D8D2D8083CE010E948804EF8DC9
:100A5000F8A1C082CE01DF91CF911F91FF90EF905E
:100A6000DF90CF900C948804FF920F931F93CF9345
:100A7000DF93EC018B018DA981110EC01EBD0DB459
:100A800007FEFDCF0EBD0DB407FEFDCFDF91CF9168
:100A90001F910F91FF9008958130B1F490E1F92EEC
:100AA000CE0117FF0EC00E94B704CE010E94A10420
:100AB000CE010E949604000F111FFA94F110F0CF9E
:100AC000E5CF0E94AC04F1CFEF8DF8A11083CE01E9
:100AD0000E948804EF8DF8A10083CE01DF91CF91B1
:100AE0001F910F91FF900C9488040F931F93CF9345
:100AF000DF93EC01162F8DA9811109C06EBD0DB4D5
:100B000007FEFDCFDF91CF911F910F9108958130A6
:100B100099F408E0CE0117FF0CC00E94B704CE0183
:100B20000E94A104110FCE010E949604015091F77A
:100B3000E9CF0E94AC04F3CFEF8DF8A16083CE0122
:100B4000DF91CF911F910F910C948804CF93DF9385
:100B5000EC01ED8DFE8D80819CA989238083CE01DF
:100B60000E947505ED8DFE8D80819BA9892B808368
:100B7000DF91CF9108958F929F92AF92BF92CF92C3
:100B8000DF92EF92FF920F931F93CF93DF93EC01CD
:100B900089AD9AAD680F791F8BAD9CAD480F591F79
:100BA00021503109260F371F4901B12CA12CCB014F
:100BB000B0E0A0E0DC0199278827882A992AAA2A90
:100BC000BB2A680181E0C81AD108C40ED51EF12CD9
:100BD000E12C70E060E0BA0155274427C42AD52AE9
:100BE000E62AF72A6AE2CE010E94A605B501A40111
:100BF000CE010E94C2046BE2CE010E94A605B7019D
:100C0000A601CE010E94C2046CE2CE01DF91CF9119
:100C10001F910F91FF90EF90DF90CF90BF90AF901A
:100C20009F908F900C94A605FC0185A9811104C0AA
:100C300091A182A19CBD8DBD08951F93CF93DF9399
:100C4000EC01162FE881F9810284F385E02D0995E6
:100C5000112371F06DADCE010E94A605E881F981E6
:100C60000688F789E02DCE01DF91CF911F9109947D
:100C70006EADF1CFAF92BF92CF92DF92EF92FF9223
:100C80000F931F93CF93DF93EC0177FD38C08885D6
:100C90009985681779079CF557FD31C08A859B8532
:100CA0004817590764F569017A015B01E881F98108
:100CB0000284F385E02DCE010995E881F98102A433
:100CC000F3A5E02D01E010E021E030E0A701B5013F
:100CD000CE010995B601CE010E943405E881F98163
:100CE0000688F789E02DCE01DF91CF911F910F91FA
:100CF000FF90EF90DF90CF90BF90AF900994DF917D
:100D0000CF911F910F91FF90EF90DF90CF90BF9008
:100D1000AF9008958F929F92AF92BF92CF92DF9241
:100D2000EF92FF920F931F93CF93DF93EC01490152
:100D30005701E881F98102A4F3A5E02D09959401FA
:100D4000D8010E945C216B017C01C114D104E10433
:100D5000F10409F47DC08DA9811115C081E0C81A84
:100D6000D108E108F1088FEFC816D806E806F806A2
:100D700009F46EC0BEBC0DB407FEFDCFAEBC0DB411
:100D800007FEFDCFEBCF813099F581E0C81AD1087D
:100D9000E108F1088FEFC816D806E806F80609F44E
:100DA00057C00B2D18E0CE0107FF1CC00E94B704EE
:100DB000CE010E94A104CE010E949604000F1150A2
:100DC00091F70A2D18E0CE0107FF0FC00E94B7046B
:100DD000CE010E94A104CE010E949604000F115082
:100DE00091F7D3CF0E94AC04E3CF0E94AC04F0CFC4
:100DF000BA1016C0CC0CDD1CEE1CFF1CEF8DF8A148
:100E0000B08281E0C81AD108E108F1088FEFC81656
:100E1000D806E806F806E1F0CE010E948804F1CF7A
:100E200081E0C81AD108E108F1088FEFC816D8068A
:100E3000E806F80669F0EF8DF8A1B082CE010E94B5
:100E40008804EF8DF8A1A082CE010E948804E8CF2B
:100E5000DF91CF911F910F91FF90EF90DF90CF9096
:100E6000BF90AF909F908F9008958F929F92AF9276
:100E7000BF92CF92DF92EF92FF920F931F93CF9387
:100E8000DF935C014B016A01E90177FD52C0DC018F
:100E900018968D919C91681779070CF04AC020979D
:100EA00009F447C037FF07C0C9010196C80ED91E13
:100EB000D195C195D109F50182859385C816D906CA
:100EC000C4F5A6014C0F5D1F9A012150310937FD71
:100ED00030C0D7FE03C0EA01D12CC12C2817390736
:100EE0001CF0EC01CC19DD09D501ED91FC910284D7
:100EF000F385E02DC501099578018E0121E030E0F0
:100F0000A601B401C5010E948A06D501ED91FC91AC
:100F10000688F789E02DC501DF91CF911F910F91D0
:100F2000FF90EF90DF90CF90BF90AF909F908F9009
:100F30000994DF91CF911F910F91FF90EF90DF9077
:100F4000CF90BF90AF909F908F9008958F929F9277
:100F5000AF92BF92CF92DF92EF92FF920F931F93C7
:100F6000CF93DF935C016B014A01E90157FD52C049
:100F7000DC011A968D919C91481759070CF04AC0D4
:100F8000209709F447C037FF07C0C9010196C80E72
:100F9000D91ED195C195D109F50180859185C816D5
:100FA000D906C4F5A6014C0F5D1F9A0121503109E5
:100FB00037FD30C0D7FE03C0EA01D12CC12C281761
:100FC00039071CF0EC01CC19DD09D501ED91FC913C
:100FD0000284F385E02DC5010995780101E010E058
:100FE0009E01A401B601C5010E948A06D501ED91BA
:100FF000FC910688F789E02DC501DF91CF911F9103
:101000000F91FF90EF90DF90CF90BF90AF909F90A7
:101010008F900994DF91CF911F910F91FF90EF90E6
:10102000DF90CF90BF90AF909F908F9008958F9258
:101030009F92AF92BF92CF92DF92EF92FF920F9367
:101040001F93CF93DF934C016B015A01E901209765
:1010500009F46CC00115110509F468C037FF07C019
:10106000C9010196C80ED91ED195C195D109F401C7
:10107000A085B185CA16DB060CF058C017FF07C063
:10108000C8010196A80EB91E119501951109F40128
:1010900082859385A816B9060CF048C0F601EC0FBE
:1010A000FD1FAF014150510957FD40C0B501600F10
:1010B000711F9B012150310937FD38C0D7FE03C095
:1010C000EF01D12CC12CB7FE03C08B01B12CA12C98
:1010D0004A175B071CF0ED01CC19DD092817390709
:1010E0001CF08C010A191B09D401ED91FC910284BA
:1010F000F385E02DC40109959E01A501B601C40147
:101100000E948A06D401ED91FC910688F789E02DB2
:10111000C401DF91CF911F910F91FF90EF90DF906D
:10112000CF90BF90AF909F908F900994DF91CF9117
:101130001F910F91FF90EF90DF90CF90BF90AF90F5
:101140009F908F900895EF92FF920F931F93CF93EC
:10115000DF9377FD32C0DC011896ED91FC916E179C
:101160007F075CF52115310541F137FF07C0F90113
:1011700031964E0F5F1F319521953109DC011A968A
:10118000ED91FC914E175F07C4F4EA01C20FD31F23
:10119000DE011197B7FD11C057FF03C09E0150E05B
:1011A00040E0AE17BF071CF09F01241B350B7801F0
:1011B000890121E030E00E948A06DF91CF911F91E2
:1011C0000F91FF90EF9008952F923F924F925F9270
:1011D0006F927F928F929F92AF92BF92CF92DF9247
:1011E000EF92FF920F931F93CF93DF93CDB7DEB7AC
:1011F0002B970FB6F894DEBF0FBECDBF3C017E83A8
:101200006D835B874A872F832801170181E090E077
:101210006C01C41AD50ACA019195819591099C0166
:10122000220F331F3A832983C80101969C838B8345
:10123000F12CE12C88248394912C9B012F5F3F4F4C
:10124000398728878A859B85E816F9060CF06DC0DA
:10125000AA84BB84D7FC0CC05C0191E0A91AB10838
:1012600029813A812E5F3F4F3A832983C20ED31ED4
:101270003FEFE31AF30A82E0880E911CC80CD91CD8
:10128000AE14BF0444F42A853B852A153B05D1F4EE
:10129000BB86AA86D7CF9501220F331F4D815E8171
:1012A0004A195B098F81813019F58B819C81280F48
:1012B000391F8101B701660D771D8FE692E00E940C
:1012C000A308E1CF9F81913029F594012250310983
:1012D000240D351D6A857B85660D771D8101488546
:1012E00059854E195F098FE692E00E94A308D0CF7E
:1012F0008B819C81280F391F8101B3016E197F09F1
:101300008FE692E00E94A3082A853B852A153B05BB
:1013100009F4BECF940122503109240D351DB301CB
:101320008A859B85681B790BD9CF2B960FB6F894CD
:10133000DEBF0FBECDBFDF91CF911F910F91FF9008
:10134000EF90DF90CF90BF90AF909F908F907F9065
:101350006F905F904F903F902F900895EF92FF9283
:101360000F931F93CF93DF9357FD31C0DC011A9683
:10137000ED91FC914E175F0754F52115310539F1B8
:1013800037FF07C0F90131966E0F7F1F3195219508
:101390003109DC011896ED91FC916E177F07BCF4C2
:1013A000EB01C20FD31FDE011197B7FD10C077FF0D
:1013B00003C09E0170E060E0AE17BF071CF09F0104
:1013C000261B370B780101E010E00E948A06DF91AE
:1013D000CF911F910F91FF90EF9008958F929F9260
:1013E000AF92BF92CF92DF92EF92FF920F931F9333
:1013F000CF93DF9347012115310509F44BC0011547
:10140000110509F447C037FF07C0F90131966E0F87
:101410007F1F319521953109DC011896AD90BC9064
:101420006A157B05BCF517FF07C0F80131964E0F12
:101430005F1F119501951109DC011A96ED91FC9140
:101440004E175F073CF56B01C20ED31EE6012197D4
:10145000D7FD20C07A01E00EF11ED7011197B7FD2C
:1014600019C077FF03C0960170E060E057FF03C02A
:10147000870150E040E0CA15DB051CF09501261BF2
:10148000370BAE17BF071CF08F01041B150B74013F
:101490000E948A06DF91CF911F910F91FF90EF90EC
:1014A000DF90CF90BF90AF909F908F900895EF9274
:1014B000FF920F931F93CF93DF93EC0177FD22C030
:1014C0008885998568177907ECF457FD1BC08A85D4
:1014D0009B8548175907B4F47901E881F98102A482
:1014E000F3A5E02D01E010E021E030E0CE01099508
:1014F000B701CE01DF91CF911F910F91FF90EF9037
:101500000C943405DF91CF911F910F91FF90EF90D4
:101510000895CF93DF93EC010E9414068FA987FDF5
:1015200006C0EB8DFC8D80819AA989238083DF9191
:10153000CF9108950895AF92BF92CF92DF92EF922C
:10154000FF920F931F93CF93DF93BC016F5F7F4F89
:10155000FC011491115008F47AC0FB01D4917B0175
:10156000F2E0EF0EF11CFB0131960491C02FCF7712
:101570008FE692E00E9414068091A60287FD09C0C2
:10158000E0918A02F0918B0280819091A1028923DF
:101590008083E0918C02F0918D0280819091A30272
:1015A000892380836D2F8FE692E00E947505E0917C
:1015B0008C02F0918D0280819091A202892B808310
:1015C000F701B12CA12CD0E0AC16BD06F4F480914B
:1015D000A4026F01823081F480919F02882361F020
:1015E000619171916F018FE692E00E943405EFEFF7
:1015F000AE1ABE0AF601E8CF8FEFC81AD80A649176
:101600008FE692E00E947505F2CF8091A60287FDD9
:1016100009C0E0918A02F0918B0280819091A00232
:10162000892B8083B7016C0F7D1F07FF93CFEB01E0
:101630002196FB01649170E06F3F710511F464EF36
:1016400071E090E080E00E945504BE0183CFDF91FD
:10165000CF911F910F91FF90EF90DF90CF90BF90AF
:10166000AF9008950F931F93CF93DF93EC018B01FD
:101670000E9414068FA987FD06C0EB8DFC8D80812A
:101680009AA989238083ED8DFE8D80819CA9892371
:10169000808366E3CE010E947505ED8DFE8D80810D
:1016A0009BA9892B80838DA9F801823091F06081FC
:1016B000CE010E9475058FA987FD06C0EB8DFC8DBC
:1016C000808199A9892B8083DF91CF911F910F9100
:1016D000089588A9882359F360817181CE010E9401
:1016E0003405E9CFCF93DF931F92CDB7DEB7FC016E
:1016F00019826370668BDC01AD5BBF4F2C9130E0CB
:1017000011968C9190E0623031F06330C9F0613015
:1017100081F040EC498332AF21AF94AF83AFBE017B
:101720006F5F7F4FCF010E94320B0F90DF91CF91FF
:10173000089540EA498334AF23AF92AF81AFEFCF32
:1017400040E6F8CFCF93DF931F92CDB7DEB7FC0111
:1017500019826370668BDC01AA5BBF4F8C91982F56
:101760009B7FAF014C5B5F4F913031F493E062306F
:1017700008F091E0DA019C939F012D5B3F4F6230AE
:1017800009F44CC0633009F459C0613069F182300A
:1017900021F098EC843009F046C090EC99838130B8
:1017A000D1F480E890E09387828791878087D90180
:1017B0008C9190E092AF81AFDA018C9190E094AF80
:1017C00083AFBE016F5F7F4FCF010E94320B0F903E
:1017D000DF91CF910895843051F580EA90E09387AE
:1017E000828780E590E0E1CF823019F098EA84307A
:1017F00061F590EA9983813091F580E890E09187D6
:10180000808793878287D9018C9190E094AF83AFD2
:10181000DA018C9190E092AF81AFD3CF823039F072
:101820008430D9F298E09983813009F4BACF80EA04
:1018300090E09387828780E890E0B7CF823019F0FC
:1018400098E6843011F490E6D5CF99838130A9F2DF
:1018500080EA90E09187808780E890E0D2CF843062
:10186000B9F780EA90E09187808780E590E0C9CF62
:10187000FC0187A987FD06C0A38DB48D9C9181A929
:10188000892B8C9308952F923F924F925F926F9283
:101890007F928F929F92AF92BF92CF92DF92EF9200
:1018A000FF920F931F93CF93DF9300D000D0CDB75B
:1018B000DEB71C015B012A013C832B8368018FE6A4
:1018C00092E00E94890A3801660C771CC801820DDB
:1018D000931D9A8389839201261937090B811C81F4
:1018E000A501BC018FE692E00E94EE098B819C81EC
:1018F0008619970901979C838B83AC0CBD1C420C05
:10190000531CC2018C199D090B811C8121E0A60189
:10191000B50101970E94E4080B811C8122E0A60119
:10192000B50189819A810E94E4088FE692E00F90C8
:101930000F900F900F90DF91CF911F910F91FF901B
:10194000EF90DF90CF90BF90AF909F908F907F905F
:101950006F905F904F903F902F900C94380C0895AB
:10196000FC016370668B84819581268137816130AB
:1019700039F0633029F09187808733872287089573
:10198000318720879387828708952F923F924F92C5
:101990005F926F927F928F929F92AF92BF92CF92FF
:1019A000DF92EF92FF920F931F93CF93DF93CDB708
:1019B000DEB76A970FB6F894DEBF0FBECDBF9A8F21
:1019C000898F7A8369834A01D22E18870F83370162
:1019D000BC2CDC0159962D913C915A97211531056B
:1019E00009F015C118968D919C9119976817790780
:1019F0000CF0D7C11A968D919C91481759070CF09D
:101A0000D0C14C2C512CB6E0CB9E600D711D112421
:101A10007C876B87161617060CF0C3C1EA2DF0E021
:101A2000FA87E98793E0EE0FFF1F9A95E1F7F88BAD
:101A3000EF87CF01840F951F181619060CF0B1C15E
:101A4000A98DBA8D58968C91811104C0BFEABD153D
:101A500008F4D394A98DBA8DED91FC91119702846D
:101A6000F385E02DCD010995B5E0DB9EC001112481
:101A7000E981FA81FC83EB83312C212C9C012E53CC
:101A80003F4F388F2F8B4A2D50E05E8B4D8BEF8967
:101A9000F88DE20DF31D44919E828D82D12CC12CD4
:101AA00069817A81620D731D7A8B698B842F90E036
:101AB0009C8B8B8BE98DFA8DA081B18140FF82C018
:101AC000F1E0BF126FC0AF126DC01C96ED91FC919A
:101AD0002F813885A4014C0D5D1D69897A89898D16
:101AE0009A8D0995EB89FC89F595E7954E2F5FEF67
:101AF000C51AD50A6D817E818D899E89680F791FEF
:101B00007E836D8398E0C916D10481F6AFEF2A1A5F
:101B10003A0AEB81FC81E40DF51DFC83EB83F5E0D3
:101B20002F16310409F0B3CF2F81388526153705DC
:101B3000B9F0A98DBA8DED91FC91B1E0BB1257C0FF
:101B4000AB1255C069817A816B5F7F4F0088F18944
:101B5000E02D830128E030E0A401898D9A8D09955C
:101B6000A98DBA8DED91FC9111970688F789E02D2A
:101B7000CD016A960FB6F894DEBF0FBECDBFDF91E0
:101B8000CF911F910F91FF90EF90DF90CF90BF907A
:101B9000AF909F908F907F906F905F904F903F900D
:101BA0002F9009941E96ED91FC91EF80F8840985A1
:101BB0001A8592014D815E816B817C81898D9A8D20
:101BC000099590CF2F8138852615370509F48ACFDE
:101BD00031E0B31207C0A31205C01C96ED91FC9131
:101BE000930178CF1E96ED91FC917301E0CF6B8548
:101BF0007C85641975090684F785E02D73010F85CE
:101C000018899201A401898D9A8D0995A9CFF901AE
:101C100034969491329745915491D91AB7E0DB9E4E
:101C2000400D511D1124F901259134913C8B2B8BD2
:101C3000FA0125903490FA013296749031963491DD
:101C4000398B329664903196449041E04C1518F0EF
:101C50004A1508F07FC0662D062C000C770B7C839C
:101C60006B83842D042C000C990B9E838D83A98D8E
:101C7000BA8DED91FC9111970284F385E02DCD0191
:101C80000995512CD12CC12CEA2DF0E0FA87E98777
:101C90002B2D30E03C872B87A401440D511D47FCC0
:101CA0005A95588F4F8B69817A81660D711D67FC3B
:101CB0007A957E876D877989C71608F051CF2C2DCC
:101CC00030E04D815E81420F531FA985BA854A9F3E
:101CD000C0014B9F900D5A9F900D1124FC01E80DFF
:101CE000F91DF88BEF87852D612C4F89588D420F98
:101CF000531F5E8B4D8B671408F050C044244394EF
:101D0000480E877041F4C1010196EB89FC89E20D10
:101D1000F31DD4901C01D7FE19C0A98DBA8DED9189
:101D2000FC91662D70E0B1E0BB1219C0AB1217C078
:101D30002D853E85620F731F0484F585E02D2F816C
:101D400038854D895E89898D9A8D0995DD0C63945E
:101D5000842DD1CF1E821D821C821B8288CF4B8195
:101D60005C81640F751FAB85BC856A9FC0016B9F4A
:101D7000900D7A9F900D112469817A81680F791FE7
:101D80000684F785E02DEF80F88409851A859D018A
:101D90004F855889898D9A8D0995D8CF570CC39452
:101DA0008ACF6A960FB6F894DEBF0FBECDBFDF9123
:101DB000CF911F910F91FF90EF90DF90CF90BF9048
:101DC000AF909F908F907F906F905F904F903F90DB
:101DD0002F9008958F929F92AF92CF92EF92FF92A1
:101DE0000F931F93CF93DF93EC01262F898D9A8D4C
:101DF000009709F051C06A30D1F41D861C868D8988
:101E000048E0849F900111248E859F85820F931F47
:101E10009F878E8781E090E0DF91CF911F910F9196
:101E2000FF90EF90CF90AF909F908F9008956D307E
:101E300089F3CC88AD888F898823C1F08C859D85F6
:101E400036E0C39E800D911D1124488559854817A1
:101E5000590764F44E855F851D861C8638E0A39E75
:101E6000C0011124840F951F9F878E87EA88FB8805
:101E7000088919894E855F856C857D85CE010E9414
:101E8000C50C2C898C859D8546E0249F800D911D75
:101E900011249D878C87BECF6A3069F41D861C860D
:101EA000FC013896E4912D898E859F85E29F800DF7
:101EB000911D1124ADCF6D3009F4ACCFFC013496E7
:101EC0003491631708F4A6CF3296E491E61708F42C
:101ED000A1CFFC01329685909490462F431B342F5E
:101EE00047E0349F800C911C1124F4013296349108
:101EF0003196E4913323A9F1EE2399F1CC88F401D2
:101F00003596E491AD884F89442301F10E2E000CE3
:101F1000FF0BE30FF11DCE9EA001CF9E500D1124AB
:101F20006C857D85460F571F688579856417750711
:101F30006CF44E855F851D861C86FC013896E49105
:101F4000AE9E400D511D11245F874E87EA88FB88A5
:101F5000088919894E855F856C857D85CE010E9433
:101F6000C50CF4013496E4912C898C859D85E29F03
:101F7000800D911D11248DCF6F927F928F929F9231
:101F8000AF92BF92CF92DF92EF92FF920F931F9387
:101F9000CF93DF93EC016B015A0139014801E881CD
:101FA000F9810284F385E02D0995E881F9810288A1
:101FB000F389E02D87019301A501B601CE010995B2
:101FC000A501480D591D41505109E881F981028848
:101FD000F389E02D9301B601CE010995E881F981DD
:101FE0000088F189E02D9401A501B601CE01099583
:101FF000C60CD71CB60161507109E881F9810088CF
:10200000F189E02D9401A501CE010995E881F981BE
:102010000688F789E02DCE01DF91CF911F910F91B6
:10202000FF90EF90DF90CF90BF90AF909F908F90F8
:102030007F906F9009946F927F928F929F92AF9250
:10204000BF92CF92DF92EF92FF920F931F93CF93A5
:10205000DF935C01EB016A01490138018701DC0172
:10206000ED91FC916217730719F5641675062CF053
:10207000962D872D3A01C92ED82E9601261937099B
:102080002F5F3F4F048CF58DE02DA301BE01C501EC
:102090000995DF91CF911F910F91FF90EF90DF9005
:1020A000CF90BF90AF909F908F907F906F9008954A
:1020B0004615570591F42617370724F0892D4B0153
:1020C000C22FD82F9E01281939092F5F3F4F068C48
:1020D000F78DE02DA601B401DACF0284F385E02D5F
:1020E0000995D501ED91FC910488F589E02D8301D6
:1020F0009401A601BE01C5010995D501ED91FC91A0
:102100000688F789E02DC501DF91CF911F910F91CE
:10211000FF90EF90DF90CF90BF90AF909F908F9007
:102120007F906F900994EF92FF920F931F93DC01C1
:102130001A960D911C911B9718962D913C91199709
:10214000ED91FC9100A0F1A1E02D7B0150E040E079
:1021500070E060E009951F910F91FF90EF90089556
:102160004F925F926F927F928F929F92AF92BF92A7
:10217000CF92DF92EF92FF920F931F93CF93DF9353
:102180006C012B015A0139014801DC01ED91FC91F0
:102190000284F385E02D0995E201640C751CD601DB
:1021A000ED91FC91C615D7055CF40088F189E02D0E
:1021B00087019401A501BE01C60109952196EFCFC3
:1021C0000688F789E02DC601DF91CF911F910F910D
:1021D000FF90EF90DF90CF90BF90AF909F908F9047
:1021E0007F906F905F904F9009948F929F92AF92E3
:1021F000BF92CF92DF92EF92FF920F931F93CF93F4
:10220000DF93EC015B014A016901E881F9810284F5
:10221000F385E02D099595012C0D3D1D21503109C7
:10222000E881F9810488F589E02D78018401A40111
:10223000B501CE010995E881F9810688F789E02D7D
:10224000CE01DF91CF911F910F91FF90EF90DF9022
:10225000CF90BF90AF909F908F9009948F929F9254
:10226000AF92BF92CF92DF92EF92FF920F931F93A4
:10227000CF93DF93EC015B014A0169017801E881AA
:10228000F9810284F385E02D0995C80CD91C8601DB
:1022900001501109E881F9810488F589E02D950143
:1022A000A401B501CE010995E881F9810688F78975
:1022B000E02DCE01DF91CF911F910F91FF90EF9014
:1022C000DF90CF90BF90AF909F908F90099408952A
:1022D000EF92FF920F931F93DC01ED91FC9100A010
:1022E000F1A1E02D09951F910F91FF90EF900895B6
:1022F0000F931F93DC01ED91FC91068CF78DE02D7F
:1023000009951F910F9108950F931F93DC01ED9193
:10231000FC91048CF58DE02D09951F910F91089586
:10232000DC01ED91FC910084F185E02D09942F9260
:102330003F924F925F926F927F928F929F92AF9255
:10234000BF92CF92DF92EF92FF920F931F93CF93A2
:10235000DF9300D000D000D0CDB7DEB73C016A01DA
:102360003E832D83FC82EB825801A41AB50AB7FE86
:1023700003C0B194A194B1088D809E80861A970AFB
:1023800097FE03C09194819491088A149B045CF099
:10239000902F812F0D811E819D838E839C2D8D2DED
:1023A0006B01692F782F0C151D055CF09D818E81C6
:1023B0007E836D83692F782F902F812F8601C92E00
:1023C000D82E1601201A310A2B012D813E81421A86
:1023D000530A57FE03C0519441945108710137FECE
:1023E00003C03FEFE31AF30AF594E7948D819E81D1
:1023F000861797075CF5A1E0B0E0BA83A983C01601
:10240000D1064CF1D301ED91FC910484F585E02DCA
:102410002B813C81A8016D817E818A149B041CF074
:102420004D815E81B801C3010995E418F508F7FEF6
:102430000AC02D813E8189819A81280F391F3E83F0
:102440002D83E20CF31C0F5F1F4FD9CF2FEF3FEF0F
:102450003A832983D4CF26960FB6F894DEBF0FBEF9
:10246000CDBFDF91CF911F910F91FF90EF90DF9043
:10247000CF90BF90AF909F908F907F906F905F9024
:102480004F903F902F900895089508952091F10165
:10249000260F3327331F21323105ECF4209115022A
:1024A000FC0190E080E0243069F082E00895A09182
:1024B000F1012191AC014F525E4FA40FB52FB11D18
:1024C0002C930196861798F38091F101680F609321
:1024D000F10180E0089581E008958FEF9FEF089566
:1024E0008FEF9FEF08958091CA0190E091958195BB
:1024F00091090895CF93DF93CB01EA01642F0E94E5
:102500004612CE01DF91CF910895CF93DF931F92B2
:10251000CDB7DEB7698361E0CE0101960E94461215
:1025200081E090E00F90DF91CF91089590E080E0FE
:102530000895FC0101900020E9F73197AF01481B95
:10254000590BBC018FE692E00C946E038F929F9220
:10255000AF92BF920F931F93CF93DF93CDB7DEB7A8
:10256000A1970FB6F894DEBF0FBECDBF19A24230BF
:1025700008F44AE08E010F5D1F4F842E912CB12C80
:10258000A12CA50194010E943A21E62FB901CA01AC
:10259000EA30F4F4E05DD801EE938D01232B242B77
:1025A000252B79F790E080E0109719F0CD010E947B
:1025B0009912A1960FB6F894DEBF0FBECDBFDF9182
:1025C000CF911F910F91BF90AF909F908F900895E2
:1025D000E95CE1CF0C9499124F925F926F927F92D7
:1025E0008F929F92AF92BF92CF92DF92EF92FF9223
:1025F0000F931F93CF936B017C01742EAC019B0151
:102600000E940021882399F081E391E0CF911F91EE
:102610000F91FF90EF90DF90CF90BF90AF909F9081
:102620008F907F906F905F904F900C94991246011D
:102630005701E894B7F82FEF3FEF4FE75FE7C50189
:10264000B4010E94002181110DC02FEF3FEF4FE731
:102650005FE7C501B4010E94E61E18161CF485E36D
:1026600091E0D4CF2FEF3FEF4FE75FE4C701B60112
:102670000E943E2018161CF489E391E0C7CF2FEF8B
:102680003FEF4FE75FECC701B6010E94E61E87FDF2
:10269000F3CF20E030E0A901C701B6010E94E61E99
:1026A00010E000E087FF0AC06DE28FE692E00E9432
:1026B000EA0E8C01F7FAF094F7F8F094C0E060E0CD
:1026C00070E080E09FE37C1641F020E030E040E2E3
:1026D00051E40E94EB1ECF5FF6CFA70196010E9446
:1026E0007A1E2B013C010E945D1F4B015C014AE0F8
:1026F0000E94A6127C01E00EF11ECC23C1F1C5019F
:10270000B4010E948C1F9B01AC01C301B2010E9465
:10271000791E4B015C016EE28FE692E00E94EA0EA8
:10272000E80EF91EC15018F120E030E040E251E41B
:10273000C501B4010E9493202B013C010E945D1F42
:102740004B01B12CA12C4AE0C501B4010E94A61294
:10275000E80EF91EC501B4010E948C1F9B01AC015B
:10276000C301B2010E94791E4B015C01DBCFC7019E
:10277000CF911F910F91FF90EF90DF90CF90BF907E
:10278000AF909F908F907F906F905F904F90089543
:102790000E948021CF92DF92EF92FF920F931F93BE
:1027A000CF93DF93EC016A017B01C114D104E104F2
:1027B000F10439F4C12C48E4D42E48EEE42EFF2471
:1027C000F394FE01FF96C082D182E282F38281E21D
:1027D0008DAF80E28EAF369610818FA987FD07C03E
:1027E00061E00E94E70361E08FA90E949B0361E022
:1027F00088AD0E94E70361E088AD0E949B038DA92C
:10280000811182C040E052E16AE770E0C416D5064B
:10281000E606F70640F476956795579547958F5FDE
:102820008630A1F787E0212F2C702065982F969590
:10283000922B99A3809581708AA3812F90E0B0E0BC
:10284000A0E08BA39CA3ADA3BEA31FB7F894809177
:102850003B02811127C0EBE7F6E08491EDE5F6E05D
:102860009491E82FF0E0EE0FFF1FEE53FA4FA59181
:10287000B491EC91E92321F461E08AE00E949B038A
:1028800061E08AE00E94E7038CB580618CBD8CB565
:1028900080648CBD61E08DE00E94E70361E08BE025
:1028A0000E94E70380913B028F5F80933B021FBF32
:1028B0008EA987FD75C061E00E94E70361E08EA9E3
:1028C0000E949B0364E670E080E090E00E94550463
:1028D00060E08EA90E949B0364E670E080E090E0D7
:1028E0000E94550461E08EA90E949B0368EC70E091
:1028F00080E090E0DF91CF911F910F91FF90EF90DA
:10290000DF90CF900C94550401E716E0F12C813054
:10291000B9F461E08AA50E94E70360E08AA50E94FD
:102920009B0361E08CA50E94E70360E08CA50E94F8
:102930009B038BA587FDBCCF60E00E94E703B8CF67
:10294000F8018491E82FF0E0EE0FFF1FE959F94FED
:10295000859194912F8D38A12817390741F461E0B2
:102960008F2D0E94E70360E08F2D0E949B03F3945C
:102970000F5F1F4FF4E1FF12E3CF61E08EA50E94CD
:10298000E70361E08EA50E949B038FA587FD90CF92
:1029900061E00E94E70361E08FA50E949B0388CF5E
:1029A000DF91CF911F910F91FF90EF90DF90CF902B
:1029B0000895CF93DF931F92CDB7DEB740E050E08C
:1029C000BA018FE692E00E94CA1388E196E00E9465
:1029D0009B0A8BE096E00E949B0A80EE95E00E94A5
:1029E0009B0A80EC8983BE016F5F7F4F8FE692E088
:1029F0000E94320B82E08093B50260E08FE692E0A5
:102A00000E94A20B0F90DF91CF9108951F93CF9357
:102A1000DF9385ED8093BC008091CD019091CE0134
:102A2000A091CF01B091D0010796A11DB11D23E067
:102A3000B695A795979587952A95D1F72091BC00D3
:102A400024FD03C01092150252C04091CD01509157
:102A5000CE016091CF017091D001452B462B472BC1
:102A600069F30097A105B10541F025E32A95F1F737
:102A700000000197A109B109E1CF8091CC01C1E02B
:102A8000C093CB01882399F1D091B8001091BA007E
:102A90008091BC008A7B8093BC0060E082E10E9450
:102AA0009B0360E083E10E949B0310921502C09398
:102AB00017021092160261E082E10E949B0361E01E
:102AC00083E10E949B038091B9008E7F8093B900BF
:102AD0008091B9008D7F8093B90088E48093B8001D
:102AE00085E48093BC001093BA00D093B800DF91C6
:102AF000CF911F9108951F920F920FB60F9211243C
:102B00002F933F938F939F93AF93BF9380914102F5
:102B100090914202A0914302B091440230913C0254
:102B200023E0230F2D3758F50196A11DB11D2093E9
:102B30003C028093410290934202A0934302B093DF
:102B4000440280913D0290913E02A0913F02B091DB
:102B500040020196A11DB11D80933D0290933E025B
:102B6000A0933F02B0934002BF91AF919F918F918C
:102B70003F912F910F900FBE0F901F90189526E850
:102B8000230F0296A11DB11DD2CF1F920F920FB637
:102B90000F9211240F900FBE0F901F9018951F9247
:102BA0000F920FB60F9211242F933F934F935F9381
:102BB0006F937F938F939F93AF93BF93EF93FF9305
:102BC0008091B900887F803609F44AC0F0F58832D8
:102BD00009F4A5C018F5803109F499C0B8F4882328
:102BE00009F4F5C0883009F492C0FF91EF91BF91CC
:102BF000AF919F918F917F916F915F914F913F9195
:102C00002F910F900FBE0F901F901895883109F4E7
:102C100086C0803251F78093140214C0803409F4C6
:102C20009BC040F48033B9F38833F9F680931402E3
:102C300085ECAEC0803509F483C0883509F494C0B2
:102C4000883499F60E940615D0CF883909F48AC0D5
:102C500038F5883729F050F4883611F0803729F696
:102C600083E0809315021092130255C0883809F44E
:102C700079C0803919F0803809F0B7CF80911302FC
:102C8000803208F06FC0E091130281E08E0F8093D4
:102C900013028091BB00F0E0ED50FE4F80833BC0FB
:102CA000803B39F0D0F4803A09F477C0883A09F0D3
:102CB0009CCF84E0809315021092F2011092F101F2
:102CC000F0E0E0E009958091F10181110FC081E011
:102CD0008093F1011092D10109C0803C09F4A8CF82
:102CE000883C09F4A5CF883B09F07FCFE091F20141
:102CF00081E08E0F8093F201F0E0EF52FE4F808171
:102D00008093BB009091F2018091F10129C08091E4
:102D10003A028093BB0085EC8093BC0066CF909113
:102D2000390280913802981758F5E091390281E014
:102D30008E0F80933902F0E0E85EFD4F8081E9CF8D
:102D4000E091390281E08E0F809339028091BB00BF
:102D5000F0E0E85EFD4F8083909139028091380267
:102D60009817C8F285E8D8CFE091390281E08E0F3C
:102D7000809339028091BB00F0E0E85EFD4F8083D4
:102D80008091170281115ECF81E08093160284EA60
:102D90008093BC001092150228CF85EC8093BC0074
:102DA0001092150280911302803230F4E0911302E8
:102DB000F0E0ED50FE4F10826091130270E083EF5F
:102DC00091E0F0E0E0E00995109213020ECF10922E
:102DD000140238CFE1E6F2E08FEF80831282118295
:102DE000148613868FEF9FEFDC0187839087A1877E
:102DF000B287AFE6B2E013961C921E92129720E8BB
:102E000030E015963C932E93149780EA90E0179645
:102E10009C938E93169719963C932E9318971B9616
:102E20009C938E931A9756961C9256971D961C92B9
:102E30001E921C971F961C921E921E9781E055961B
:102E40008C93559754968C9354972FEF3FEF53964E
:102E50003C932E93529751963C932E9350975796AE
:102E60008C93579758961C9258975A961C921E927C
:102E70005997D5961C92D59787E0D6968C93D6977E
:102E800085E0D7968C93D79786E0D8968C93D89781
:102E9000DA961C921E92D997DC961C921E92DB97B2
:102EA000DD961C92DD97DE961C92DE971092AE02A4
:102EB0001092AF021092B0021092B1028EE692E030
:102EC00090969C938E935F97E7E7F6E0E491F0E0AD
:102ED000EE0FFF1FE959F94F859194915E969C93EF
:102EE0008E935D97E9E5F6E08491D3968C93D39722
:102EF000E6E7F6E0E491F0E0EE0FFF1FE959F94F45
:102F0000259134915C963C932E935B97E8E5F6E02F
:102F1000E491D196EC93D197E095D296EC93D29729
:102F2000E82FE095D496EC93D4971092B2021092C9
:102F3000B3021092B40285E091E08D939C930895C2
:102F4000789484B5826084BD84B5816084BD85B584
:102F5000826085BD85B5816085BD80916E00816090
:102F600080936E0010928100809181008260809336
:102F70008100809181008160809381008091800038
:102F80008160809380008091B10084608093B10063
:102F90008091B00081608093B00080917A0084605D
:102FA00080937A0080917A00826080937A00809189
:102FB0007A00816080937A0080917A0080688093A3
:102FC0007A001092C10061E089E00E94E70361E0AD
:102FD0008AE00E94E70380E18093810010928000E4
:102FE000C2E0C093600280E29EE490935F0280930F
:102FF0005E02909387008093860082E18093810037
:10300000809180008F70806B8093800083E080933C
:10301000000161E082E00E94E70361E084E10E9438
:10302000E70361E085E10E94E70361E083E00E943D
:10303000E70361E088E00E94E7030E94D9146FEF84
:103040007FEF8FE692E00E94931063E08FE692E0BC
:103050000E94A20BC0938302C093840250EEE52E1F
:1030600057E0F52E05E010E029E130E04FE550E0B3
:1030700068E270E08EE190E00E94430CE12C68EF82
:10308000F62E29E130E04DE750E061E470E08FE09A
:1030900090E00E94430C1092800210927F0280EE1A
:1030A00097E0909382028093810283E290E0909374
:1030B0007C0280937B027DE2672E712C70927E02EF
:1030C00060927D028DE391E00E94EA1210928002EC
:1030D00010927F02812CE8EF9E2E909282028092C5
:1030E000810289E190E090937C0280937B0286E4E8
:1030F00090E090937E0280937D0285E491E00E94AF
:10310000EA1261E088E00E949B0360ED77E080E0D6
:1031100090E00E94550460E088E00E949B036AE012
:1031200070E080E090E00E9455040E94D9146FEF97
:103130007FEF8FE692E00E94931063E08FE692E0CB
:103140000E94A20B81E08093830280938402FFE1BE
:10315000EF2EF12C24E630E042E350E069E170E02C
:103160008EE690E00E94430C10E000E027E130E0A2
:1031700044EA50E070E060E090E080E00E94430CA0
:10318000CFEFDFEFD0938002C0937F02AFE1AA2E92
:10319000B12CB0928202A09281028EE190E09093D5
:1031A0007C0280937B0287E090E090937E02809384
:1031B0007D028EE491E00E94EA12F12CE12C05E000
:1031C00010E02FE030E041E450E069E170E090E091
:1031D00080E00E94430CE12CB8EFFB2E2FE030E0A2
:1031E00048E250E069E170E084E490E00E94430C22
:1031F000D0938002C0937F021092820210928102CB
:1032000085E0C82ED12CD0927C02C0927B029CE13A
:10321000492E512C50927E0240927D0280E691E030
:103220000E94EA12F12CE12C2FE030E041E450E062
:103230006AE270E090E080E00E94430C2FE1E22E11
:10324000F12C2FE030E048E250E06AE270E084E4E4
:1032500090E00E94430CD0938002C0937F021092B2
:10326000820210928102D0927C02C0927B02709204
:103270007E0260927D028AE691E00E94EA12F12CC1
:10328000E12C2FE030E041E450E06BE370E090E0AF
:1032900080E00E94430C30EEE32E37E0F32E2FE067
:1032A00030E048E250E06BE370E084E490E00E949C
:1032B000430CD0938002C0937F021092820210923E
:1032C0008102D0927C02C0927B028EE390E09093C8
:1032D0007E0280937D0284E791E00E94EA12F12C45
:1032E000E12C2FE030E041E450E06CE470E090E04D
:1032F00080E00E94430C40EEE42EFF24FA942FE07D
:1033000030E048E250E06CE470E084E490E00E9439
:10331000430CD0938002C0937F02109282021092DD
:103320008102D0927C02C0927B028FE490E0909365
:103330007E0280937D028DE791E00E94EA12F12CDB
:10334000E12C2FE030E041E450E06DE570E090E0EA
:1033500080E00E94430C5FE1E52E58EFF52E2FE050
:1033600030E048E250E06DE570E084E490E00E94D7
:10337000430CD0938002C0937F021092820210927D
:103380008102D0927C02C0927B0280E690E0909312
:103390007E0280937D0287E891E00E94EA12E12C90
:1033A00068EFF62E2FE030E04EE650E06EE670E07B
:1033B00090E080E00E94430CF12CE12C2FE030E003
:1033C00042E350E06EE670E08EE690E00E94430C2F
:1033D0002FE030E044E150E06EE670E08CE890E0F1
:1033E0000E94430CD0938002C0937F02909282028D
:1033F00080928102D0927C02C0927B0201E710E0B1
:1034000010937E0200937D0281E991E00E94EA120E
:10341000D0938002C0937F021092820210928102A8
:1034200086E990E090937C0280937B0210937E0269
:1034300000937D0282EA91E00E94EA1270EEE72E8C
:10344000FF24FA9405E010E022E130E04DE250E084
:1034500068E270E081E790E00E94430CD093800224
:10346000C0937F02B0928202A092810283E790E033
:1034700090937C0280937B0250927E0240927D0268
:1034800084EA91E00E94EA12D0938002C0937F0206
:10349000B0928202A09281028EE790E090937C022B
:1034A00080937B028CE390E090937E0280937D0278
:1034B0008CEA91E00E94EA12EE24EA94FE2C22E1CA
:1034C00030E043E250E066E470E086E790E00E947E
:1034D000430CF0EEEF2EF7E0FF2E22E130E043E266
:1034E00050E06AE570E086E790E00E94430C4DE210
:1034F000242E312C00EE1FEFD2E0D093600220E2A8
:103500003EE430935F0220935E0230938700209365
:103510008600C2E1C093810061E089E00E94E70378
:103520008091800080688093800020915E023091BD
:103530005F02A4EFB1E00E9464212AE0969587958E
:10354000779567952A95D1F77093890060938800E5
:1035500080916002806180938100D093600280E25C
:103560009EE490935F0280935E0290938700809325
:103570008600C093810061E08AE00E94E7038091A9
:10358000800080628093800020915E0230915F0213
:10359000ABE0B2E00E9464213AE09695879577957A
:1035A00067953A95D1F770938B0060938A0080916C
:1035B000600280618093810080915602811122C057
:1035C0002FB7F8948091410290914202A09143025A
:1035D000B09144022FBF80934E0290934F02A0936C
:1035E0005002B093510284E190E0A0E0B0E08093FB
:1035F000520290935302A0935402B093550281E07B
:10360000809356022FB7F894809141029091420224
:10361000A0914302B09144022FBF40914E025091BD
:103620004F026091500270915102841B950BA60BC2
:10363000B70B409152025091530260915402709125
:10364000550284179507A607B70708F4A7C12FB737
:10365000F8948091410290914202A0914302B0916E
:1036600044022FBF80934E0290934F02A0935002CA
:10367000B0935102C4E6D0E0C12CD12C760181E197
:103680000E941804BC01990F880B990B0E948E1F91
:103690009B01AC01C701B6010E947A1E6B017C013F
:1036A00061E070E080E090E00E945504219739F7D6
:1036B0002FE632E143E05DE3C701B6010E949320AB
:1036C00020E030E048EC52E40E94EB1E2DEC3CEC94
:1036D0004CE85FE30E9493204B015C01AFEFBFEF2A
:1036E000B0938002A0937F0220E038EF30938202F3
:1036F0002093810286E490E090937C0280937B0289
:10370000ACE1B0E0B0937E02A0937D0242E0C5013F
:10371000B4010E94EC12C4E6D0E0C12CD12C760199
:1037200080E10E941804BC01990F880B990B0E943C
:103730008E1F9B01AC01C701B6010E947A1E6B016E
:103740007C0161E070E080E090E00E9455042197E8
:1037500039F72BE739E94FE45CE3C701B6010E9472
:10376000932020E030E048EC52E40E94EB1E2DEC68
:103770003CEC4CE85FE30E9493206B017C012FEF4F
:103780003FEF3093800220937F028FE190E090938F
:10379000820280938102A8E4B0E0B0937C02A093FF
:1037A0007B0230927E0220927D0242E0C701B60188
:1037B0000E94EC121092800210927F0220EE37E0FD
:1037C000309382022093810288E490E090937C02FF
:1037D00080937B02AEE3B0E0B0937E02A0937D02C3
:1037E000A7019601C501B4010E9493206B017C01E1
:1037F00041E00E94EC12C4E6D0E0412C512C320191
:1038000082E10E941804BC01990F880B990B0E9459
:103810008E1F9B01AC01C301B2010E947A1E2B01D5
:103820003C0161E070E080E090E00E945504219747
:1038300039F71092800210927F0210938202009357
:10384000810226E430E030937C0220937B028FE4F7
:1038500090E090937E0280937D0229E835E246E96C
:103860005EE3C301B2010E94932020E030E048EC07
:1038700052E40E94EB1E2DEC3CEC4CE85FE30E940E
:10388000932042E00E94EC128FEF9FEF9093800212
:1038900080937F02109282021092810283E790E06F
:1038A00090937C0280937B0281E790E090937E026C
:1038B00080937D0220E030E042E853E4C701B60186
:1038C0000E94EB1E41E00E94EC12AFEFBFEFB093FD
:1038D0008002A0937F0220E038EF30938202209391
:1038E000810286E490E090937C0280937B02ACE1BD
:1038F000B0E0B0937E02A0937D0241E0C501B40127
:103900000E94EC1226E636E646E251E4C501B40117
:103910000E94E61E87FF28C160E08CE00E949B03A6
:1039200061E082E00E949B0364EF71E080E090E040
:103930000E94550460E082E00E949B0364EF71E006
:1039400080E090E00E94550461E088E00E949B03C3
:1039500064E670E080E090E00E94550460E088E05A
:103960000E949B0364E670E080E090E00E945504B2
:103970001092800210927F021093820200938102C3
:1039800085E790E090937C0280937B0230927E02E8
:1039900020927D0280EB91E00E94EA128EE00E946C
:1039A0001804C0914D02CB30E8F4BC01990F880B8C
:1039B000990B0E948E1F9B01AC016091490270918E
:1039C0004A0280914B0290914C020E947A1E6093B1
:1039D000490270934A0280934B0290934C02CF5F4E
:1039E000C0934D0260914D026B3008F486C070E0C8
:1039F00090E080E00E948E1F9B01AC016091490223
:103A000070914A0280914B0290914C020E94EB1EF1
:103A10009B01AC011092490210924A0210924B0293
:103A200010924C0210924D0260E070EC8FE794E42B
:103A30000E94EB1E20E030E040E85FE30E94791E28
:103A400020E030E04AE754E40E9493200E944B209B
:103A50006B017C012CE63FEC48E554E30E94932087
:103A6000A70196010E949320A70196010E9493202E
:103A70004B015C0126ED34E649E759E3C701B60185
:103A80000E9493202BEC38E444E85AE30E947A1E0B
:103A90009B01AC01C501B4010E947A1E9B01AC01DF
:103AA00060E070E080E89FE30E94EB1E23E333E9CF
:103AB00048E853E40E94791E6093450270934602E1
:103AC00080934702909348021092800210927F02E6
:103AD0002FE138EF309382022093810226E430E018
:103AE00030937C0220937B0220E630E030937E020C
:103AF00020937D0241E00E94EC1220E030E040E3A0
:103B000052E4609145027091460280914702909183
:103B100048020E943E2018160CF0CEC061E083E0FF
:103B20000E949B031092800210927F028FEF9FEF02
:103B300090938202809381028EE790E090937C02C2
:103B400080937B028CE490E090937E0280937D02D0
:103B500082EC91E00E94EA1280E090E0892B09F467
:103B6000CBCC0E940000C3CC26E636E64EE251E400
:103B7000C501B4010E94E61E87FF41C061E08CE0F0
:103B80000E949B0360E082E00E949B0364EF71E06F
:103B900080E090E00E94550460E082E00E949B0378
:103BA00064EF71E080E090E00E94550461E088E0FD
:103BB0000E949B0368EC70E080E090E00E94550456
:103BC00060E088E00E949B0368E97AE380E090E08F
:103BD0000E9455041092800210927F02109382027C
:103BE0000093810285E790E090937C0280937B02B2
:103BF00030927E0220927D0282EB91E0CDCE20E0D9
:103C000030E040E451E4C501B4010E94E61E87FFA4
:103C100015C01092800210927F02109382020093CE
:103C2000810285E790E090937C0280937B02309242
:103C30007E0220927D0286EB91E0AECE2AE939E940
:103C400049E451E4C501B4010E94E61E87FF15C096
:103C50001092800210927F021093820200938102E0
:103C600085E790E090937C0280937B0230927E0205
:103C700020927D028AEB91E08FCE26E636E646E67C
:103C800051E4C501B4010E94E61E87FF87CE109261
:103C9000800210927F02109382020093810285E7D6
:103CA00090E090937C0280937B0230927E0220927F
:103CB0007D028EEB91E070CE60E083E00E949B037A
:103CC0001092800210927F02AFEFBFEFB09382029A
:103CD000A09381028EE790E090937C0280937B0218
:103CE0008CE490E090937E0280937D0286EC91E0DC
:103CF00031CF5058BB27AA270E94911E0C94042054
:103D00000E94F61F38F00E94FD1F20F039F49F3FFB
:103D100019F426F40C94F31F0EF4E095E7FB0C94D1
:103D2000ED1FE92F0E94152058F3BA176207730799
:103D30008407950720F079F4A6F50C9437200EF44B
:103D4000E0950B2EBA2FA02D0B01B90190010C01AB
:103D5000CA01A0011124FF27591B99F0593F50F4C3
:103D6000503E68F11A16F040A22F232F342F44271B
:103D7000585FF3CF469537952795A795F040539513
:103D8000C9F77EF41F16BA0B620B730B840BBAF0E3
:103D90009150A1F0FF0FBB1F661F771F881FC2F74E
:103DA0000EC0BA0F621F731F841F48F48795779562
:103DB0006795B795F7959E3F08F0B0CF9395880F1C
:103DC00008F09927EE0F9795879508950E94C91FCF
:103DD00008F481E008950E94FF1E0C9404200E94C4
:103DE000FD1F58F00E94F61F40F029F45F3F29F0B4
:103DF0000C94ED1F51110C9438200C94F31F0E9469
:103E0000152068F39923B1F3552391F3951B550BB6
:103E1000BB27AA2762177307840738F09F5F5F4F9D
:103E2000220F331F441FAA1FA9F335D00E2E3AF0DC
:103E3000E0E832D091505040E695001CCAF72BD0F4
:103E4000FE2F29D0660F771F881FBB1F2617370745
:103E50004807AB07B0E809F0BB0B802DBF01FF2777
:103E600093585F4F3AF09E3F510578F00C94ED1F48
:103E70000C9438205F3FE4F3983ED4F38695779511
:103E80006795B795F7959F5FC9F7880F911D969530
:103E9000879597F90895E1E0660F771F881FBB1F8C
:103EA000621773078407BA0720F0621B730B840B39
:103EB000BA0BEE1F88F7E09508950E941D2088F048
:103EC0009F5798F0B92F9927B751B0F0E1F0660FDE
:103ED000771F881F991F1AF0BA95C9F714C0B1301F
:103EE00091F00E943720B1E008950C943720672F9D
:103EF000782F8827B85F39F0B93FCCF3869577954E
:103F00006795B395D9F73EF4909580957095619536
:103F10007F4F8F4F9F4F0895E89409C097FB3EF461
:103F200090958095709561957F4F8F4F9F4F992306
:103F3000A9F0F92F96E9BB279395F6958795779584
:103F40006795B795F111F8CFFAF4BB0F11F460FF44
:103F50001BC06F5F7F4F8F4F9F4F16C0882311F09C
:103F600096E911C0772321F09EE8872F762F05C0B0
:103F7000662371F096E8862F70E060E02AF09A954B
:103F8000660F771F881FDAF7880F9695879597F940
:103F90000895990F0008550FAA0BE0E8FEEF1616DA
:103FA0001706E807F907C0F012161306E407F5072D
:103FB00098F0621B730B840B950B39F40A2661F0A1
:103FC000232B242B252B21F408950A2609F4A14044
:103FD000A6958FEF811D811D089597F99F6780E851
:103FE00070E060E008959FEF80EC089500240A944B
:103FF0001616170618060906089500240A941216C4
:104000001306140605060895092E0394000C11F4F6
:10401000882352F0BB0F40F4BF2B11F460FF04C0A3
:104020006F5F7F4F8F4F9F4F089557FD9058440FFC
:10403000551F59F05F3F71F04795880F97FB991F07
:1040400061F09F3F79F087950895121613061406C4
:10405000551FF2CF4695F1DF08C016161706180651
:10406000991FF1CF86957105610508940895E8942C
:10407000BB2766277727CB0197F908950E94C91FB0
:1040800008F48FEF089516F00C9405210C94F31F9B
:1040900068940C94ED1F0E941D20A8F39923C1F38E
:1040A000AEF3DF93CF931F930F93FF92C92FDD27BA
:1040B00088232AF02197660F771F881FDAF720E000
:1040C00030E040E85FEB9FE3883920F0803E38F035
:1040D00021968F770E947A1EE8E6F0E004C00E94E5
:1040E0007A1EE5E9F0E00E9413218B01BE01EC018C
:1040F000FB2E6F5771097595771F880B990B0E94DE
:104100008E1F28E132E741E35FE30E94A620AF2D36
:104110009801AE01FF900F911F91CF91DF910E9406
:10412000911E0C9404200E94A6200C9404200E944E
:10413000F61F38F00E94FD1F20F0952311F00C941B
:10414000ED1F0C94F31F11240C9438200E941520AD
:1041500070F3959FC1F3950F50E0551F629FF001DA
:10416000729FBB27F00DB11D639FAA27F00DB11DF3
:10417000AA1F649F6627B00DA11D661F829F22277C
:10418000B00DA11D621F739FB00DA11D621F839F03
:10419000A00D611D221F749F3327A00D611D231FD9
:1041A000849F600D211D822F762F6A2F11249F5727
:1041B00050409AF0F1F088234AF0EE0FFF1FBB1F2A
:1041C000661F771F881F91505040A9F79E3F5105E9
:1041D00080F00C94ED1F0C9438205F3FE4F3983E80
:1041E000D4F3869577956795B795F795E7959F5F93
:1041F000C1F7FE2B880F911D9695879597F9089525
:104200000E94C91F880B990B08959F3F31F0915070
:1042100020F4879577956795B795880F911D9695AA
:10422000879597F90895DF93CF931F930F93FF928C
:10423000EF92DF927B018C01689406C0DA2EEF01C9
:104240000E94A620FE01E894A59125913591459103
:104250005591A6F3EF010E94911EFE019701A8015E
:10426000DA9469F7DF90EF90FF900F911F91CF9153
:10427000DF910895A1E21A2EAA1BBB1BFD010DC000
:10428000AA1FBB1FEE1FFF1FA217B307E407F50706
:1042900020F0A21BB30BE40BF50B661F771F881FE2
:1042A000991F1A9469F760957095809590959B0178
:1042B000AC01BD01CF0108950E946421332312F4A3
:1042C0008A1B9B0B0C947521A29FB001B39FC00168
:1042D000A39F700D811D1124911DB29F700D811D32
:1042E0001124911D08950E946421B7FF0895821B37
:1042F000930B0895EE0FFF1F0590F491E02D0994A4
:1043000081E090E0F8940C948521F894FFCF0100AF
:10431000000000EA0E6E03961244123A06890A570C
:104320000AEE09A308AE099711380CA20B1D063539
:1043300007A607170893101B10BC0FCA13BB056E06
:10434000616E00696E66006F7666004152445549A1
:104350004E4F00494E564552544552004554204454
:104360004953434F56455220302E35205600424186
:104370005454455259203D0043555252454E542005
:104380003D00574154542020203D00414320566FAA
:104390006C74203D004D6F7320486561743D005280
:1043A000656D61696E696E672054494D45203D0019
:1043B0004800422053544154450046414E00452098
:1043C0004C4F5700343025003730250046554C00FF
:0843D00052554E004F46460015
:107800000C94343C0C94513C0C94513C0C94513CE1
:107810000C94513C0C94513C0C94513C0C94513CB4
:107820000C94513C0C94513C0C94513C0C94513CA4
:107830000C94513C0C94513C0C94513C0C94513C94
:107840000C94513C0C94513C0C94513C0C94513C84
:107850000C94513C0C94513C0C94513C0C94513C74
:107860000C94513C0C94513C11241FBECFEFD8E036
:10787000DEBFCDBF11E0A0E0B1E0ECE9FFE702C060
:1078800005900D92A230B107D9F712E0A2E0B1E065
:1078900001C01D92AD30B107E1F70E942D3D0C945F
:1078A000CC3F0C94003C982F959595959595959582
:1078B000905D8F708A307CF0282F295A8091C0000B
:1078C00085FFFCCF9093C6008091C00085FFFCCF60
:1078D0002093C6000895282F205DF0CF982F809127
:1078E000C00085FFFCCF9093C6000895EF92FF92F1
:1078F0000F931F93EE24FF2487018091C00087FD22
:1079000017C00894E11CF11C011D111D81E4E8164B
:1079100082E4F8068FE0080780E0180770F3E09132
:107920000401F091050109958091C00087FFE9CF1E
:107930008091C6001F910F91FF90EF9008950E94D3
:10794000763C982F8091C00085FFFCCF9093C600B5
:1079500091362CF490330CF09053892F089597555D
:10796000892F08951F930E949F3C182F0E949F3CCF
:107970001295107F810F1F9108951F93182F882350
:1079800021F00E94763C1150E1F71F9108951F935A
:10799000182F0E94763C803249F0809103018F5F5E
:1079A000809303018530C1F01F9108958091C0003C
:1079B00085FFFCCF84E18093C6008091C00085FFE5
:1079C000FCCF1093C6008091C00085FFFCCF80E102
:1079D0008093C6001F910895E0910401F091050184
:1079E00009951F9108950E94763C803241F0809164
:1079F00003018F5F80930301853081F008958091AA
:107A0000C00085FFFCCF84E18093C6008091C00058
:107A100085FFFCCF80E18093C6000895E0910401CA
:107A2000F09105010995089540E951E08823A1F0FE
:107A30002D9A28EE33E0FA013197F1F721503040CA
:107A4000D1F72D9828EE33E0FA013197F1F7215064
:107A50003040D1F7815061F708953F924F925F9285
:107A60006F927F928F929F92AF92BF92CF92DF924E
:107A7000EF92FF920F931F93CF93DF93000080E16B
:107A80008093C4001092C50088E18093C10086E015
:107A90008093C2005098589A259A81E00E94143D24
:107AA00024E1F22E9EE1E92E85E9D82E0FE0C02ECA
:107AB00010E1B12EAA24A394B1E49B2EA6E58A2E50
:107AC000F2E57F2EE0E26E2E79E4572E63E5462E36
:107AD00050E5352E0E94763C8033B1F18133B9F107
:107AE000803409F46FC0813409F476C0823409F41B
:107AF00085C0853409F488C0803531F1823521F1A3
:107B0000813511F1853509F485C0863509F48DC0BC
:107B1000843609F496C0843709F403C1853709F423
:107B200072C1863709F466C0809103018F5F80932C
:107B30000301853079F6E0910401F0910501099582
:107B40000E94763C803351F60E94F33CC3CF0E94E2
:107B5000763C803249F78091C00085FFFCCFF092DF
:107B6000C6008091C00085FFFCCF9092C600809136
:107B7000C00085FFFCCF8092C6008091C00085FFC9
:107B8000FCCF7092C6008091C00085FFFCCF609250
:107B9000C6008091C00085FFFCCF5092C600809146
:107BA000C00085FFFCCF4092C6008091C00085FFD9
:107BB000FCCF3092C6008091C00085FFFCCFB09210
:107BC000C60088CF0E94763C863808F4BDCF0E945C
:107BD000763C0E94F33C7ECF0E94763C803809F4CC
:107BE0009CC0813809F40BC1823809F43CC1883942
:107BF00009F48FC080E00E94C73C6CCF84E10E94F2
:107C0000BD3C0E94F33C66CF85E00E94BD3C0E94D3
:107C1000F33C60CF0E94763C809306010E94763C44
:107C2000809307010E94F33C55CF0E94763C80333D
:107C300009F41DC183E00E94BD3C80E00E94C73C66
:107C400049CF0E94763C809309020E94763C809343
:107C5000080280910C028E7F80930C020E94763C79
:107C6000853409F415C18091080290910902892B8D
:107C700089F000E010E00E94763CF801E85FFE4FDA
:107C800080830F5F1F4F80910802909109020817AF
:107C9000190788F30E94763C803209F045CF809125
:107CA0000C0280FF01C16091060170910701660F0F
:107CB000771F7093070160930601A0910802B091AD
:107CC00009021097C9F0E8E0F1E09B01AD014E0F09
:107CD0005F1FF999FECF32BD21BD819180BDFA9A17
:107CE000F99A2F5F3F4FE417F50799F76A0F7B1F4B
:107CF00070930701609306018091C00085FFFCCF5F
:107D0000F092C6008091C00085FFFCCFB092C60003
:107D1000E1CE83E00E94C73CDDCE82E00E94C73CFA
:107D2000D9CE0E94763C809309020E94763C8093D3
:107D300008028091060190910701880F991F909386
:107D40000701809306010E94763C853409F4A6C0A1
:107D500080910C028E7F80930C020E94763C8032D0
:107D600009F0B8CE8091C00085FFFCCFF092C6002C
:107D7000609108027091090261157105B9F140E046
:107D800050E080910C02A82FA170B82FB27011C0E2
:107D9000BB2309F45CC0E0910601F0910701319624
:107DA000F0930701E09306014F5F5F4F46175707B7
:107DB000E8F4AA2369F3F999FECF209106013091E6
:107DC000070132BD21BDF89A90B58091C00085FFB2
:107DD000FCCF9093C6002F5F3F4F30930701209355
:107DE00006014F5F5F4F4617570718F38091C00099
:107DF00085FDE5CE8091C00085FFF8CFE0CE81E023
:107E00000E94C73C67CE0E94763C803209F08CCE3F
:107E10008091C00085FFFCCFF092C6008091C00029
:107E200085FFFCCFE092C6008091C00085FFFCCFAB
:107E3000D092C6008091C00085FFFCCFC092C600E2
:107E40008091C00085FFFCCFB092C60043CEE09188
:107E50000601F091070194918091C00085FFFCCF4D
:107E60009093C6009CCF80E10E94C73C33CE0E9415
:107E7000763C0E94763C182F0E94763C112309F430
:107E800083C0113009F484C08FE00E94C73C22CE29
:107E900080910C02816080930C02E5CE80910C02EF
:107EA000816080930C0259CF809107018823880F4D
:107EB000880B8A2180930B02809106019091070123
:107EC000880F991F90930701809306018091080203
:107ED00080FF09C080910802909109020196909359
:107EE000090280930802F894F999FECF1127E091D6
:107EF0000601F0910701C8E0D1E08091080290915D
:107F00000902103091F40091570001700130D9F34B
:107F100003E000935700E89500915700017001308D
:107F2000D9F301E100935700E89509901990009169
:107F3000570001700130D9F301E000935700E89534
:107F40001395103498F011270091570001700130FB
:107F5000D9F305E000935700E895009157000170B0
:107F60000130D9F301E100935700E895329602976A
:107F700009F0C7CF103011F00296E5CF112480919F
:107F8000C00085FFB9CEBCCE8EE10E94C73CA2CD19
:0E7F900085E90E94C73C9ECDF894FFCF80008B
:00000001FF
